:100000000C9434000C9451000C9451000C94510049
:100010000C9451000C9451000C9451000C9451001C
:100020000C9451000C9451000C9451000C9451000C
:100030000C9451000C9451000C9451000C945100FC
:100040000C9451000C9451000C9453000C945100EA
:100050000C9451000C9451000C9451000C945100DC
:100060000C9451000C94510011241FBECFEFD8E026
:10007000DEBFCDBF11E0A0E0B1E0EEE5F1E002C0EF
:1000800005900D92A631B107D9F721E0A6E1B1E0C4
:1000900001C01D92A835B207E1F70E9478000C94C8
:1000A000AD000C9400002F932FB72F933F938F93A5
:1000B0009F93EF93FF932091C6008091170190E0EA
:1000C00001968F73992730911601381741F0E0910E
:1000D0001701F0E0E85EFE4F208380931701FF9147
:1000E000EF919F918F913F912F912FBF2F91189555
:1000F0001092C50087E68093C40088E98093C10010
:1001000086E08093C2007894E0E0F1E08191811173
:100110001DC090911701809116019817D1F3E091BD
:100120001601F0E0E85EFE4F20818091160190E01C
:1001300001968F73992780931601222351F38091A2
:10014000C00085FFFCCF2093C600E3CF9091C00094
:0E01500095FFFCCF8093C600D9CFF894FFCF67
:10015E00554152542042756666657220526561643F
:06016E007921210A0000C6
:00000001FF
