:100000000C9434000C9449000C9449000C94490061
:100010000C9449000C9449000C9449000C9449003C
:100020000C9449000C9449000C9449000C9449002C
:100030000C9449000C9449000C9449000C9449001C
:100040000C9449000C9449000C9449000C9449000C
:100050000C9449000C9449000C9449000C944900FC
:100060000C9449000C94490011241FBECFEFD8E036
:10007000DEBFCDBF11E0A0E0B1E0ECEDF0E002C0EA
:1000800005900D92AC30B107D9F70E944B000C944B
:100090006C000C9400001092C50087E68093C400A9
:1000A00088E18093C10086E08093C200E0E0F1E047
:1000B000819181110AC02FEF83ED90E321508040A0
:1000C0009040E1F700C00000F1CF9091C00095FF93
:0C00D000FCCF8093C600ECCFF894FFCF6B
:0C00DC0048656C6C6F20554152540A00BE
:00000001FF
