:100000000C9434000C943E000C943E000C943E0082
:100010000C943E000C943E000C943E000C943E0068
:100020000C943E000C943E000C943E000C943E0058
:100030000C943E000C9440000C943E000C943E0046
:100040000C943E000C943E000C943E000C943E0038
:100050000C943E000C943E000C943E000C943E0028
:100060000C943E000C943E0011241FBECFEFD8E04C
:10007000DEBFCDBF0E9453000C9464000C940000BE
:100080008F938FB78F939F9385B190E2892785B91E
:1000900086EF92EC90938500809384009F918F91DE
:1000A0008FBF8F911895259A86EF92EC90938500DB
:1000B0008093840085E0809381001092800081E02D
:0C00C00080936F007894FFCFF894FFCF7E
:00000001FF
